:020000040000FA
:100000000C94A9000C94D1000C94D1000C94ED0533
:100010000C94ED050C94ED050C94D1000C94D100DA
:100020000C94D1000C94D1000C94D1000C94D1000C
:100030000C94D1000C94D1000C94D1000C94D100FC
:100040000C94A3050C94D1000C9471050C944B05F1
:100050000C94D1000C94D1000C94D1000C94D100DC
:100060000C94D1000C94D10033323133313134351A
:100070003230003332313331313435323000202DDB
:100080002D446972656363696F6E20416C657820E9
:10009000436163686F6E322D2D002D2D44697265AA
:1000A0006363696F6E20416C657820436163686F9C
:1000B0006E2D2D00416C657820436163686F6E3151
:1000C00000416C657820436163686F6E00333231A4
:1000D000333131343532310033323133313134352B
:1000E00032300000000000240027002A0000000039
:1000F00008000201000003040700000000000000E7
:1001000000730068009A007E00C100B400D800CDE2
:100110000000000000230026002900000000002548
:100120000028002B00040404040404040402020256
:100130000202020303030303030102040810204028
:100140008001020408102001020408102000650646
:100150009F0C11241FBECFEFD8E0DEBFCDBF23E040
:10016000ACE5B2E001C01D92A03EB207E1F712E09B
:10017000A0E0B1E0E0E2F4E202C005900D92AC35FF
:10018000B107D9F710E0C8EAD0E004C02197FE011A
:100190000E94470DC73AD107C9F70E9415070C9472
:1001A00003120C940000DB0114964D915C9115979D
:1001B0006D917C91DC01ED91FC910280F381E02D49
:1001C0000994AF92BF92CF92DF92EF92FF920F937A
:1001D0001F93CF93DF936C017B018B01040F151FDD
:1001E000EB015E01AE18BF08C017D10759F0699145
:1001F000D601ED91FC910190F081E02DC6010995A9
:10020000892B79F7C501DF91CF911F910F91FF9055
:10021000EF90DF90CF90BF90AF900895FC01538D89
:10022000448D252F30E0842F90E0821B930B5417D0
:1002300010F0CF96089501970895FC01918D828D5D
:10024000981761F0A28DAE0FBF2FB11D5D968C91F6
:10025000928D9F5F9F73928F90E008958FEF9FEF35
:100260000895FC01918D828D981731F0828DE80FF1
:10027000F11D858D90E008958FEF9FEF0895FC01AB
:10028000918D228D892F90E0805C9F4F821B910978
:100290008F73992708958AE193E00E943F0121E03E
:1002A000892B09F420E0822F089580E090E0892BCB
:1002B00029F00E944B0181110C9400000895FC016B
:1002C000A48DA80FB92FB11DA35ABF4F2C91848DB7
:1002D00090E001968F739927848FA689B7892C9314
:1002E000A089B1898C91837080648C93938D848D67
:1002F000981306C00288F389E02D80818F7D80836A
:100300000895EF92FF920F931F93CF93DF93EC0129
:1003100081E0888F9B8D8C8D98131AC0E889F989AC
:10032000808185FF15C09FB7F894EE89FF896083AF
:10033000E889F98980818370806480839FBF81E030
:1003400090E0DF91CF911F910F91FF90EF90089572
:10035000F62E0B8D10E00F5F1F4F0F731127E02E4D
:100360008C8D8E110CC00FB607FCFACFE889F98985
:10037000808185FFF5CFCE010E945F01F1CFEB8D2B
:10038000EC0FFD2FF11DE35AFF4FF0829FB7F89459
:100390000B8FEA89FB8980818062CFCF682F8AE149
:1003A00093E00C948101CF93DF93EC01888D882337
:1003B000B9F0AA89BB89E889F9898C9185FD03C0C8
:1003C000808186FD0DC00FB607FCF7CF8C9185FFAD
:1003D000F2CF808185FFEDCFCE010E945F01E9CF92
:1003E000DF91CF91089590E0FC01E351FF4F2491FC
:1003F000FC01E75CFE4F3491FC01EB5DFE4FE491A4
:10040000EE23C9F0222339F0233001F1A8F4213082
:1004100019F1223029F1F0E0EE0FFF1FE55EFE4FEB
:10042000A591B4918FB7F894EC91611126C03095E5
:100430003E233C938FBF08952730A9F02830C9F0A0
:10044000243049F7809180008F7D03C08091800027
:100450008F7780938000DFCF84B58F7784BDDBCF2B
:1004600084B58F7DFBCF8091B0008F778093B000F3
:10047000D2CF8091B0008F7DF9CF3E2BDACFCF93D2
:10048000DF9390E0FC01E75CFE4F24918B5D9E4F73
:10049000FC0184918823D1F090E0880F991FFC0122
:1004A000ED51FF4FA591B491FC01E55EFE4FC59162
:1004B000D49161110EC09FB7F8948C91E22FE09512
:1004C0008E238C932881E223E8839FBFDF91CF9115
:1004D00008958FB7F894EC91E22BEC938FBFF6CF91
:1004E0003FB7F8948091A1029091A202A091A3023B
:1004F000B091A40226B5A89B05C02F3F19F0019624
:10050000A11DB11D3FBFBA2FA92F982F8827BC016D
:10051000CD01620F711D811D911D42E0660F771F95
:10052000881F991F4A95D1F708958F929F92AF9295
:10053000BF92CF92DF92EF92FF924B015C010E943B
:1005400070026B017C010E9470026C197D098E099A
:100550009F09683E734081059105A8F321E0821A46
:100560009108A108B10888EEC80E83E0D81EE11CEE
:10057000F11C81149104A104B10429F7FF90EF90BC
:10058000DF90CF90BF90AF909F908F9008952FB73E
:10059000F89460919D0270919E0280919F029091CB
:1005A000A0022FBF08952091A7023091A80228171A
:1005B000390771F49091A5028091A602981741F035
:1005C000E091A502F0E0E45AFD4F808190E00895AB
:1005D0008FEF9FEF08950895EF92FF920F931F936F
:1005E000CF93DF93DC015C96ED90FC905D97E11476
:1005F000F10479F481E090E013969C938E93129726
:1006000090E080E0DF91CF911F910F91FF90EF90EC
:1006100008955196ED91FC91529750968C91509778
:10062000982F90950FB75E962C915E97122F1270AF
:1006300021FD6095F8942081112319F1282B208346
:10064000E7012197F1F728E0462F50E0308160FF65
:100650001AC0382B3083E7012197F1F7BA0175955D
:100660006795215089F7112381F080818923808348
:100670000FBF5C968D919C910197F1F781E090E01E
:10068000C1CF2923DCCF3923E5CF9081892BEFCF50
:100690002091A7023091A8022817390771F48091A0
:1006A000A6022091A50290E0805C9F4F821B9109D9
:1006B00060E470E00E94FD0C089590E080E00895F1
:1006C0002091A7023091A80228173907B9F4909118
:1006D000A5028091A602981789F0E091A502F0E0AA
:1006E000E45AFD4F80812091A50230E02F5F3F4FFB
:1006F0002F7333272093A50290E008958FEF9FEF8B
:1007000008950F931F930E94C7026093C5037093CF
:10071000C6038093C7039093C8038DEB93E00E94B8
:10072000600397FF1DC00E94C7020091C50310918E
:10073000C6032091C7033091C803601B710B820B65
:10074000930B0091C1031091C2032091C303309118
:10075000C4036017710782079307F8F28FEF9FEFCA
:100760001F910F91089590E080E00895FB010190A2
:100770000020E9F73197AF01461B570BDC01ED91E3
:10078000FC910280F381E02D09940F931F93CF9386
:10079000DF93EC010E94B6038C016AE271E0CE01A6
:1007A0000E94B603800F911FDF91CF911F910F918F
:1007B00008950F931F93CF93DF93EC010E94D30012
:1007C0008C016AE271E0CE010E94B603800F911F96
:1007D000DF91CF911F910F9108954F925F926F9289
:1007E0007F928F929F92AF92BF92CF92DF92FF92B1
:1007F0000F931F93CF93DF93CDB7DEB7C456D109C4
:100800000FB6F894DEBF0FBECDBF6C012B018E0179
:100810000F5F1F4F84E6F80111928A95E9F764E6AD
:1008200070E080E090E00E9495028DEB93E00E94E2
:100830004803181619062CF48DEB93E00E94600310
:10084000F4CFB6018DEB93E00E94D9030E94C7025A
:100850004B015C01D12CC12C712C612C8DEB93E0F0
:100860000E944803892B91F08DEB93E00E94600376
:10087000F801EC0DFD1D80836DE271E0C8010E945E
:10088000480F892B69F5FFEFCF1ADF0A0E94C702D4
:10089000681979098A099B09641575058605970504
:1008A000E8F2F12CB8018AE193E00E94C5038F2D94
:1008B00090E0CC59DF4F0FB6F894DEBF0FBECDBF2E
:1008C000DF91CF911F910F91FF90DF90CF90BF905C
:1008D000AF909F908F907F906F905F904F90089512
:1008E000FF24F394DFCFFC0180819181009711F008
:1008F0000C94E90D08950F931F93CF93DF93EC01B0
:1009000088819981009759F02A813B812617370702
:1009100030F081E0DF91CF911F910F9108958B010D
:100920006F5F7F4F0E94720E009759F09983888302
:100930001B830A832C813D81232B59F7FC011082F4
:10094000E8CF80E0E7CFEF92FF920F931F93CF9312
:10095000DF93EC017B01198218821B821A821D82AF
:100960001C82FB0101900020E9F731978F01061BE3
:10097000170BB8010E947B0428813981811113C0B3
:100980002115310519F0C9010E94E90D198218825B
:100990001D821C821B821A82DF91CF911F910F91C1
:1009A000FF90EF9008951D830C83B701C901DF917B
:1009B000CF911F910F91FF90EF900C94410F70E039
:1009C00060E087EB93E00E947B042091B7033091B5
:1009D000B803811113C02115310519F0C9010E9416
:1009E000E90D1092B8031092B7031092BC03109255
:1009F000BB031092BA031092B90308951092BC037E
:100A00001092BB036CE271E0C9010C94410FEF92AC
:100A1000FF920F931F93CF93DF9300D0CDB7DEB734
:100A20008C0169831A82FC01E480F580FFEFEF1AE4
:100A3000FF0AB7010E947B04882381F0F80120811E
:100A4000318184819581BE016F5F7F4F820F931F3B
:100A50000E94410FF801F582E48281E00F900F902F
:100A6000DF91CF911F910F91FF90EF900895CF9359
:100A7000DF93EC016CE271E00E94A3040E94810309
:100A800097FD05C0682FCE010E940705F7CFCE0164
:100A9000DF91CF9108951F920F920FB60F921124FC
:100AA0002F933F934F935F936F937F938F939F9376
:100AB000AF93BF93EF93FF938AE193E00E945F01AE
:100AC000FF91EF91BF91AF919F918F917F916F9126
:100AD0005F914F913F912F910F900FBE0F901F90FC
:100AE00018951F920F920FB60F9211242F938F9388
:100AF0009F93EF93FF93E0912A03F0912B03808162
:100B0000E0913003F091310382FD1BC09081809110
:100B100033038F5F8F7320913403821741F0E0918C
:100B20003303F0E0E65EFC4F958F80933303FF9133
:100B3000EF919F918F912F910F900FBE0F901F906B
:100B400018958081F4CF1F920F920FB60F92112447
:100B50002F933F938F939F93AF93BF9380919D0269
:100B600090919E02A0919F02B091A00230919C02B0
:100B700023E0230F2D3758F50196A11DB11D2093B9
:100B80009C0280939D0290939E02A0939F02B0933B
:100B9000A0028091A1029091A202A091A302B09123
:100BA000A4020196A11DB11D8093A1029093A202FF
:100BB000A093A302B093A402BF91AF919F918F9194
:100BC0003F912F910F900FBE0F901F90189526E820
:100BD000230F0296A11DB11DD2CF1F920F920FB607
:100BE0000F9211242F933F934F935F936F937F93B3
:100BF0008F939F93AF93BF93EF93FF93E091A702DF
:100C0000F091A802309749F0A685B7858585968D25
:100C100091FF14C09C918923A1F4FF91EF91BF91A2
:100C2000AF919F918F917F916F915F914F913F9184
:100C30002F910F900FBE0F901F9018959C918923B4
:100C400061F7A389B4899C918589809589238C93C8
:100C5000868997890197F1F7608D718DA685B78593
:100C6000558538E020E0CB010197F1F7822F90E025
:100C700095958795282F4C91452309F02068315090
:100C800091F7868D81FD20958091A60290E00196D6
:100C90008F7399273091A502381799F0A091A60279
:100CA000B0E0A45ABD4F2C938093A602828D938D01
:100CB0000197F1F7A389B4898C919589892B8C933D
:100CC000ACCF868D8160868FF1CF10921D0310927C
:100CD0001C0388EE93E0A0E0B0E080931E039093A5
:100CE0001F03A0932003B09321032AE031E0309347
:100CF0001B0320931A0325EC30E030932703209345
:100D0000260324EC30E0309329032093280320ECC1
:100D100030E030932B0320932A0321EC30E0309312
:100D20002D0320932C0322EC30E030932F032093EB
:100D30002E0326EC30E030933103209330031092E1
:100D4000330310923403109235031092360310923D
:100D5000C0031092BF038093C1039093C203A0937A
:100D6000C303B093C4038CE191E09093BE038093DE
:100D7000BD031092D4031092D3031092D6031092A5
:100D8000D5031092D8031092D7031092DA03109271
:100D9000D9036091DB036E7F6D7F6093DB03669503
:100DA000617081E0682783E00E94F30161E083E0E5
:100DB0000E943F02ECE3F1E0E491E093CD03E8E22E
:100DC000F1E0E491F0E0EE0FFF1FE55EFE4F85914C
:100DD00094919093CF038093CE0360E084E00E94CF
:100DE0003F028091DB0381FD04C061E084E00E944A
:100DF000F30184E08093C903EDE3F1E0E491E09333
:100E0000CA03E9E2F1E0E491F0E0EE0FFF1FEF5ECC
:100E1000FE4F859194919093CC038093CB036CE229
:100E200071E087EB93E00C94A304CF93DF93CDB7ED
:100E3000DEB7C657D1090FB6F894DEBF0FBECDBFDF
:100E4000789484B5826084BD84B5816084BD85B5A5
:100E5000826085BD85B5816085BD80916E008160B1
:100E600080936E0010928100809181008260809357
:100E70008100809181008160809381008091800059
:100E80008160809380008091B10084608093B10084
:100E90008091B00081608093B00080917A0084607E
:100EA00080937A0080917A00826080937A008091AA
:100EB0007A00816080937A0080917A0080688093C4
:100EC0007A001092C100E0912A03F0912B0382E096
:100ED0008083E0912A03F0912B031082E091260396
:100EE000F09127031082E0912803F091290380E11B
:100EF000808310923203E0912E03F0912F0386E05D
:100F00008083E0912C03F0912D03808180618083A8
:100F1000E0912C03F0912D03808188608083E09123
:100F20002C03F0912D03808180688083E0912C0355
:100F3000F0912D0380818F7D80831092D8031092D1
:100F4000D7031092D6031092D5031092D4031092B7
:100F5000D30382E490E09093DA038093D9039091D5
:100F6000C903963108F047C02FE030E03093D40336
:100F70002093D30320E430E03093D6032093D503AD
:100F800027E230E03093D8032093D7032091680004
:100F900084E0983048F031E09E3008F430E081E0A1
:100FA00001C0880F3A95EAF7822B809368002DE6FE
:100FB00030E0983050F02BE630E09E3030F02CE6F8
:100FC00030E0963110F030E020E03093D1032093F0
:100FD000D003292F30E0983008F034C181E001C0FF
:100FE000880F9A95EAF78093D2038091D903909164
:100FF000DA030197F1F78091D7039091D803892BF9
:1010000049F1E091A702F091A80223E0ED3BF2073D
:1010100009F1309739F0A389B4899C91858980952D
:1010200089238C938091DB038E7F8093DB03109266
:10103000A6021092A5028DEB93E09093A8028093F4
:10104000A702E091D003F091D10380819091D20367
:10105000892B808361E086E00E943F0261E089E0A5
:101060000E943F0261E08AE00E943F0261E08BE063
:101070000E943F0260ED77E080E090E00E949502E0
:1010800060E371E08E010F5F1F4FC8010E94A3044F
:1010900064E670E0C8010E94ED03C8010E94730479
:1010A00063E371E0C8010E94A30464E670E0C80134
:1010B0000E94ED03C8010E94730469E371E0C80156
:1010C0000E94A30464E670E0C8010E94ED03C80119
:1010D0000E94730467E471E0C8010E94A30464E6FF
:1010E00070E0C8010E94ED03C8010E94730462E52C
:1010F00071E0C8010E94A30468EC70E0C8010E947E
:10110000ED03C8010E9473046DE571E0C8010E94FF
:10111000A30468EC70E0C8010E94ED03C8010E94BE
:1011200073040E94DF048DEB93E00E944803892B37
:1011300009F47EC38DEB93E00E946003F82E082E25
:10114000000C990B0E94CE016F2D87EB93E00E945B
:10115000070560E771E0C8010E94A3048091BB030A
:101160009091BC03892B09F47AC0E090B703F0900A
:10117000B80369817A81C7010E94480F009709F47A
:101180006EC0AC014E195F097A01C8010E94730458
:101190001E141F0444F60E94DF045AE0E52EF12CD1
:1011A0008DEB93E00E946003D82E082E000C990B63
:1011B0000E94CE016D2D87EB93E00E94070551E060
:1011C000E51AF10869F7C8010E943705C8010E94B5
:1011D000730469E771E08AE193E00E94B60367EB6C
:1011E00073E08AE193E00E94D903D12CC12C46EB35
:1011F000E42E42E0F42E84E6F70111928A95E9F795
:10120000F601E35FFE4F6591749186EB92E00E94D8
:10121000BF0C66EB72E08AE193E00E94C503809107
:10122000BB039091BC03892BF1F48091B602882313
:1012300021F1F2E0CF0ED11C24E0C216D10409F452
:1012400072CFD9CF9E3040F42850310981E001C0DF
:10125000880F2A95EAF7C7CE2E503109F7CFEE2432
:10126000EA94FE2C92CF66EB72E08091B7039091E6
:10127000B8030E94380F892BE1F66AE871E08AE131
:1012800093E00E94B60324E6B22EF7012B2D1192B3
:101290002A95E9F7A601475F5E4FE7965FAF4EAF2D
:1012A000E797FA016591749186EB92E00E94BF0C7A
:1012B00066EB72E08AE193E00E94B6036FE971E0A9
:1012C0008AE193E00E94B603F7011192BA94E9F71C
:1012D00096012B5F3E4FE5963FAF2EAFE597F901A4
:1012E0006591749186EB92E00E94BF0C66EB72E010
:1012F0008AE193E00E94C5036CEA71E08AE193E021
:101300000E94C50365EB71E08DEB93E00E94C5037D
:1013100068EC70E080E090E00E9495028AE193E042
:101320000E94D3010E94C7026093B2027093B3027D
:101330008093B4029093B50261E086E00E94F301CD
:1013400061E089E00E94F3016AEB71E08AE193E0D9
:101350000E94C5036BEC71E08DEB93E00E94B60335
:101360008AE193E00E94D30168EC70E080E090E0B5
:101370000E94950231E0232E31E0332EF70124E65E
:1013800011922A95E9F7F1016591749186EB92E04B
:101390000E94BF0C3CE2E31631E0F30609F435C2CB
:1013A0008AE193E00E94D301F80124E611922A9584
:1013B000E9F7FF92EF9248ED51E05F934F931F934F
:1013C0000F930E94620FB8018DEB93E00E94B60369
:1013D00068EC70E080E090E00E949502CE018B59AD
:1013E0009F4F0E943705BE016B597F4F8AE193E002
:1013F0000E94D903CE018B599F4F0E947304F801BC
:1014000024E611922A95E9F7F70124E611922A952C
:10141000E9F7E796EEADFFADE7976591749186EB3E
:1014200092E00E94BF0CFF92EF9249EE51E05F9371
:101430004F931F930F930E94620FB8018DEB93E0BF
:101440000E94C50364E670E080E090E00E9495028F
:10145000CE018B599F4F0E943705BE016B597F4FBC
:101460008AE193E00E94D300CE018B599F4F0E94E6
:101470007304F80124E611922A95E9F7F70124E6AE
:1014800011922A95E9F7E596EEADFFADE5976591E6
:10149000749186EB92E00E94BF0CFF92EF9247E1BD
:1014A00052E05F934F931F930F930E94620FB80116
:1014B0008DEB93E00E94C50364E670E080E090E06D
:1014C0000E949502CE018B599F4F0E943705BE01A5
:1014D0006B597F4F8AE193E00E94D300CE018B5974
:1014E0009F4F0E94730468EC70E080E090E00E94DF
:1014F00095026AE18DEB93E00E94EC026AE271E0F2
:101500008DEB93E00E94B6036AE271E08DEB93E00D
:101510000E94B60364E670E080E090E00E949502CD
:10152000CE018B599F4F0E943705BE016B597F4FEB
:101530008AE193E00E94D300CE018B599F4F0E9415
:10154000730468EC70E080E090E00E9495026CE229
:1015500071E0CE0185599F4F0E94A3040FB6F89405
:10156000DEBF0FBECDBFB12CA12C1A141B04E4F1B9
:101570008DEB93E00E944803892BB9F38DEB93E048
:101580000E946003B82E082E000C990B0E94CE0119
:101590006B2DCE0185599F4F0E94070564E272E0D2
:1015A000CE018B599F4F0E94A304E1968EAD9FAD53
:1015B000E197892B81F0AD968EAC9FACAD97A79645
:1015C0006EAD7FADA797C4010E94480F5C01A818BB
:1015D000B908892B19F4AA24AA94BA2CCE018B59E4
:1015E0009F4F0E947304C1CFCE018B599F4F0E9421
:1015F0003705BE016B597F4F8AE193E00E94D3000B
:10160000CE018B599F4F0E9473046BE272E08AE116
:1016100093E00E94C503CE018B599F4F0E9437056E
:10162000BE016B597F4F8AE193E00E94D300CE0147
:101630008B599F4F0E94730467E372E08AE193E045
:101640000E94B603F70124E611922A95E9F7F10109
:101650006591749186EB92E00E94BF0C66EB72E09C
:101660008AE193E00E94C503F80124E611922A95CD
:10167000E9F7FF92EF9244E452E05F934F931F9398
:101680000F930E94620FB8018DEB93E00E94C50397
:1016900064E670E080E090E00E949502CE018B59F4
:1016A0009F4F0E943705BE016B597F4F8AE193E03F
:1016B0000E94D300CE018B599F4F0E94730462E3B6
:1016C00070E080E090E00E9495020E94C7024B010A
:1016D0005C010E94C7022B013C014092AD02509276
:1016E000AE026092AF027092B0020F900F900F9016
:1016F0000F900F900F90E1E0F0E0E396FFAFEEAFB8
:10170000E39784189508A608B708F1E48F16FCE95A
:101710009F06A104B10408F03FC00E94C7024B011C
:101720005C018091A9029091AA02A091AB02B091B4
:10173000AC02A5019401281B390B4A0B5B0BDA01A3
:10174000C901883E9340A105B105C0F0E2966FAD96
:10175000E2978AE00E94F301E3964EAD5FADE39716
:1017600081E04827E3965FAF4EAFE3978092A902EE
:101770009092AA02A092AB02B092AC028DEB93E0E1
:101780000E944803892B09F4BCCF8DEB93E00E94A3
:1017900060030E94CE01F2CF60E08AE00E94F30174
:1017A0006CEA71E08AE193E00E94C50365EB71E0A9
:1017B0008DEB93E00E94C503CE018B599F4F0E9491
:1017C0003705BE016B597F4F8AE193E00E94D90330
:1017D000CE018B599F4F0E94730464EF71E080E04B
:1017E00090E00E9495028DEB93E00E944803892BC4
:1017F00039F08DEB93E00E9460030E94CE01F3CF9D
:10180000CE0185599F4F0E94730492E0290E311C2E
:10181000E5E0F1E0E215F30509F0B0CD64EF71E029
:1018200080E090E00E94950281E08093B10201CDBA
:101830000E94DF048AE193E00E943F01892B81F03E
:101840008AE193E00E941D01F82E682F8DEB93E052
:101850000E94EC026F2D87EB93E00E940705EACF10
:101860000E94C7026B017C018091B1028823F9F0CC
:101870008091B2029091B302A091B402B091B502EE
:10188000A7019601281B390B4A0B5B0BDA01C90132
:10189000883E9340A105B105B8F060E089E00E9460
:1018A000F30160E086E00E94F3011092B10280E053
:1018B00090E0892B09F435CC0E944B01882309F470
:1018C00030CC0E9400002DCC6CE472E08AE193E001
:1018D0000E94B6038091B2029091B302A091B4022B
:1018E000B091B502A7019601281B390B4A0B5B0B7F
:1018F00019A27E0181E2E80EF11C8AE0882E912C6B
:10190000A12CB12CCA01B901A50194010E94110DAD
:10191000605DF70162937F01211531054105510595
:1019200089F7309729F0BF018AE193E00E94B6035E
:101930006AE271E08AE193E00E94B603B8CF87EBD8
:1019400093E00E9473048CE191E09093BE03809336
:10195000BD038091A7029091A8028D5B934071F422
:10196000E091D003F091D10390818091D2038095D2
:10197000892380831092A8021092A7020895FB0188
:10198000DC0105900D920020E1F708952F923F921F
:101990004F925F926F927F928F929F92AF92BF927F
:1019A000CF92DF92EF92FF920F931F93CF93DF932B
:1019B000CDB7DEB7CA1BDB0B0FB6F894DEBF0FBE88
:1019C000CDBF09942A88398848885F846E847D84D5
:1019D0008C849B84AA84B984C884DF80EE80FD80D7
:1019E0000C811B81AA81B981CE0FD11D0FB6F8944D
:1019F000DEBF0FBECDBFED01089597FB072E16F495
:101A0000009407D077FD09D00E94330D07FC05D064
:101A10003EF4909581959F4F0895709561957F4F05
:101A20000895A1E21A2EAA1BBB1BFD010DC0AA1F1F
:101A3000BB1FEE1FFF1FA217B307E407F50720F037
:101A4000A21BB30BE40BF50B661F771F881F991FB2
:101A50001A9469F760957095809590959B01AC01FB
:101A6000BD01CF010895AA1BBB1B51E107C0AA1FEE
:101A7000BB1FA617B70710F0A61BB70B881F991F2F
:101A80005A95A9F780959095BC01CD010895EE0F68
:101A9000FF1F0590F491E02D09940F931F93CF93AE
:101AA000DF938230910510F482E090E0E091DE0354
:101AB000F091DF0330E020E0B0E0A0E0309799F44F
:101AC0002115310509F44AC0281B390B2430310592
:101AD000D8F58A819B816115710589F1FB0193839A
:101AE0008283FE0111C04081518102811381481718
:101AF0005907E0F04817590799F4109761F01296CA
:101B00000C93129713961C933296CF01DF91CF91CD
:101B10001F910F9108950093DE031093DF03F4CF1C
:101B20002115310551F04217530738F0A901DB01A7
:101B30009A01BD01DF01F801C1CFEF01F9CF909308
:101B4000DF038093DE03CDCFFE01E20FF31F81930D
:101B500091932250310939832883D7CF2091DC0318
:101B60003091DD03232B41F42091020130910301D8
:101B70003093DD032093DC032091000130910101BB
:101B80002115310541F42DB73EB740910401509124
:101B90000501241B350BE091DC03F091DD03E21716
:101BA000F307A0F42E1B3F0B2817390778F0AC0180
:101BB0004E5F5F4F2417350748F04E0F5F1F50935D
:101BC000DD034093DC03819391939FCFF0E0E0E04D
:101BD0009CCFCF93DF930097E9F0FC0132971382FB
:101BE0001282A091DE03B091DF03ED0130E020E02E
:101BF0001097A1F420813181820F931F2091DC0383
:101C00003091DD032817390709F061C0F093DD0337
:101C1000E093DC03DF91CF910895EA01CE17DF074F
:101C2000E8F54A815B819E0141155105B1F7E90153
:101C3000FB83EA8349915991C40FD51FEC17FD0727
:101C400061F4808191810296840F951FE901998347
:101C50008883828193819B838A83F0E0E0E01296FF
:101C60008D919C9113970097B9F52D913C91119707
:101C7000CD010296820F931F2091DC033091DD038A
:101C80002817390739F6309751F51092DF03109273
:101C9000DE03B093DD03A093DC03BCCFD383C28308
:101CA00040815181840F951FC817D90761F44E5F99
:101CB0005F4F88819981480F591F518340838A81E2
:101CC0009B81938382832115310509F0B0CFF09376
:101CD000DF03E093DE039ECFFD01DC01C0CF138262
:101CE0001282D7CFB0E0A0E0E8E7FEE00C94C80C89
:101CF0008C01009751F4CB010E944D0D8C01C8015D
:101D0000CDB7DEB7E0E10C94E40CFC01E60FF71F61
:101D10009C0122503109E217F30708F49DC0D90154
:101D2000CD91DC911197C617D70798F0C530D10532
:101D300030F3CE0104978617970708F3C61BD70B1D
:101D40002297C193D1936D937C93CF010E94E90DAB
:101D5000D6CF5B01AC1ABD0A4C018C0E9D1EA09122
:101D6000DE03B091DF03512C412CF12CE12C1097B4
:101D700031F58091DC039091DD038815990509F018
:101D80005CC04616570608F058C08091000190913B
:101D90000101009741F48DB79EB740910401509125
:101DA0000501841B950BE817F90708F055C0F0935F
:101DB000DD03E093DC03F90171836083A0CF8D9193
:101DC0009C91119712966C90129713967C90139792
:101DD000A815B90559F56C0142E0C40ED11CCA140E
:101DE000DB0420F1AC014A195B09DA011296159760
:101DF00080F06282738251834083D9016D937C931A
:101E0000E114F10471F0D7011396FC93EE9312974D
:101E100076CF22968C0F9D1FF90191838083F30169
:101E2000EFCFF093DF03E093DE0369CF4816590646
:101E300008F42C017D01D3019ACFCB010E944D0DF6
:101E40007C01009749F0AE01B8010E942F0FC80134
:101E50000E94E90D870153CF10E000E050CFFB0155
:101E6000DC0102C001900D9241505040D8F7089516
:101E7000FB01DC018D91019080190110D9F3990BC0
:101E80000895FB01DC0101900D920020E1F7089517
:101E9000FB0151915523A9F0BF01DC014D9145177C
:101EA0004111E1F759F4CD010190002049F04D9125
:101EB00040154111C9F3FB014111EFCF81E090E0E2
:101EC00001970895AEE0B0E0E8E6FFE00C94D40C92
:101ED0000D891E8986E08C831A8309838FEF9FE723
:101EE0009E838D83AE01475E5F4F6F89788DCE01F3
:101EF00001960E94850F2F813885020F131FF8016C
:101F000010822E96E4E00C94F00CABE0B0E0EBE82D
:101F1000FFE00C94C60C7C013B018A01FC01178296
:101F20001682838181FFC8C1CE0101965C01F70151
:101F30009381F30193FD859193FF81913F01882364
:101F400009F453C1853239F493FD859193FF819152
:101F50003F01853229F4B70190E00E947511E7CF67
:101F6000912C212C312CFFE1F31538F08B3211F13B
:101F700090F4803209F1833229F137FC3CC020ED26
:101F8000280F2A3050F536FE20C08AE0989E200D9A
:101F90001124922E06C08D3291F0803371F768942F
:101FA00030F8F30193FD859193FF81913F018111F9
:101FB000DACF21C0689431F8689432F8F2CF68948F
:101FC00033F8EFCF689434F8ECCFEAE02E9E200D82
:101FD0001124222E689435F8E4CF8E3229F436FC91
:101FE00004C1689436F8DDCF8C3619F4689437F85C
:101FF000D8CF8836B1F2982F9F7D95549330E0F07A
:102000008336A1F18337C1F1833509F063C028011C
:10201000F2E04F0E511CF801C080D180692D70E0B4
:1020200036FC02C06FEF7FEFC6010E945F114C01CA
:10203000689437F882010AC00C5F1F4FFFE3F983F1
:1020400088248394912C6501E89437F833FE2DC0E1
:10205000522C8114910471F5552009F468CFB70111
:1020600080E290E00E9475115A94F6CFF8018081C9
:1020700089830E5F1F4FE4CF2801F2E04F0E511C01
:10208000F801C080D180692D70E036FC02C06FEF8E
:102090007FEFC6010E946A114C018201D5CFB701C2
:1020A00080E290E00E9475112A942814190409F026
:1020B000B0F7CECFF60137FC859137FE81916F01E5
:1020C000B70190E00E94751151105A94F1E08F1AF7
:1020D0009108BFCF843619F0893609F077C0F8012E
:1020E00037FE6BC060817181828193810C5F1F4FCD
:1020F000F32DFF763F2E97FF09C090958095709540
:1021000061957F4F8F4F9F4F689437F82AE030E0FA
:10211000A5010E94A511C82ECA188C2C432C36FE8E
:102120000CC0E89440F8C91440F434FE05C032FCF9
:1021300003C0F32DFE7E4F2E892C44FE95C0FE0178
:10214000EC0DF11D8081803309F087C0242D297E9C
:10215000422E842D8870582E43FC95C040FE8FC0BF
:102160009C2C821418F42C0C922C981844FE91C0CC
:10217000B70180E390E00E94751142FE09C088E734
:1021800090E041FE02C088E590E0B7010E94751121
:10219000C91408F48AC0CA94D12C9FEFC91AD90A6D
:1021A000CA0CDB1CF60182916F01B70190E00E941E
:1021B0007511AC14BD04B1F74FCF60817181072E4A
:1021C000000C880B990B0E5F1F4F92CFD32CE89415
:1021D000D4F82AE030E0853739F1232D297FD22E3B
:1021E0008F3601F148F48835A9F0F701868197818F
:1021F0002B96E2E10C94E20C803749F08837A9F77E
:10220000D4FE02C06894D2F820E130E00DC068949A
:10221000D4F8F6CF34FE03C0822F8660D82E20E19A
:1022200032E002C028E030E0F801D7FE0FC0608144
:102230007181828193810C5F1F4FA5010E94A511BE
:10224000C82ECA183D2CE89437F867CF6081718199
:1022500090E080E00E5F1F4FF0CF42FC02C08394FD
:1022600078CF8394839475CF842D867809F471CFC9
:10227000F6CFB70180E290E00E947511839482143A
:10228000C0F3512C73CF522C5818821408F46ECF1F
:10229000F8CF842D867809F47BCF8BE241FE80E273
:1022A00047FC8DE2B70190E071CFB70180E390E089
:1022B0000E9475119A946CCF8FEF9FEF99CFFC011C
:1022C0000590615070400110D8F7809590958E0F61
:1022D0009F1F0895FC016150704001900110D8F7D4
:1022E000809590958E0F9F1F08950F931F93CF9306
:1022F000DF93182F092FEB018B8181FD09C01FEFA0
:102300000FEF812F902FDF91CF911F910F910895A3
:1023100082FF14C02E813F818C819D81281739074F
:102320003CF4E881F981CF01019699838883108379
:102330008E819F8101969F838E83E3CFE885F98507
:10234000812F0995892BA1F3DACFFA01AA2728302A
:1023500051F1203181F1E8946F936E7F6E5F7F4F72
:102360008F4F9F4FAF4FB1E03ED0B4E03CD0670FEE
:10237000781F891F9A1FA11D680F791F8A1F911D41
:10238000A11D6A0F711D811D911DA11D20D009F491
:1023900068943F912AE0269F11243019305D3193D3
:1023A000DEF6CF010895462F4770405D4193B3E0BC
:1023B0000FD0C9F7F6CF462F4F70405D4A3318F063
:1023C000495D31FD4052419302D0A9F7EACFB4E014
:1023D000A6959795879577956795BA95C9F70097CC
:1023E0006105710508959B01AC010A2E069457956D
:1023F000479537952795BA95C9F7620F731F841FC4
:10240000951FA01D089510E0C8EAD0E004C0FE01A9
:102410000E94470D2196C93AD107C9F7F894FFCF1A
:102420000000E0038000000000008101E1000E01D7
:10243000D3013F011D01310100000000EC02E10069
:10244000B303EB0248036003D3020D0A004F4B00B5
:10245000415400415426460D0041542B4950523DF1
:1024600035373630300D0041542B434C49503D3107
:102470000D0041542B434D47463D310D0041542B37
:10248000434E4D493D322C322C302C302C300D0037
:102490002B434C49503A2022000A204C4C414D41DC
:1024A0004E2044455344453A200045737461205200
:1024B00065676973747261646F2065733A200020E8
:1024C000446972656363696F6E3A2000436F6C679D
:1024D000616E646F004154480D00456E7669616E0F
:1024E000646F204D656E73616A650041542B434DE6
:1024F0004746203D20310D0041542B434D47533D6D
:10250000222B35372573220A0053652065737461C9
:102510002070726573656E74616E646F20756E20D5
:10252000726F626F20656E20656C206C6F63616CEA
:1025300020646520257300446972656363696F6E6A
:10254000202573002B434D47533A00534D532065CC
:102550006E766961646F004C6C616D616E646F20B2
:10256000616C3A0041544425733B0D00414C41528B
:0C2570004D4120534F4E414E444F3A0065
:107E0000112484B714BE81FFF0D085E080938100F7
:107E100082E08093C00088E18093C10086E0809377
:107E2000C20080E18093C4008EE0C9D0259A86E02C
:107E300020E33CEF91E0309385002093840096BBD3
:107E4000B09BFECF1D9AA8958150A9F7CC24DD24C4
:107E500088248394B5E0AB2EA1E19A2EF3E0BF2EE7
:107E6000A2D0813461F49FD0082FAFD0023811F036
:107E7000013811F484E001C083E08DD089C08234E0
:107E800011F484E103C0853419F485E0A6D080C0E4
:107E9000853579F488D0E82EFF2485D0082F10E0AE
:107EA000102F00270E291F29000F111F8ED06801E7
:107EB0006FC0863521F484E090D080E0DECF843638
:107EC00009F040C070D06FD0082F6DD080E0C81688
:107ED00080E7D80618F4F601B7BEE895C0E0D1E017
:107EE00062D089930C17E1F7F0E0CF16F0E7DF06D8
:107EF00018F0F601B7BEE89568D007B600FCFDCFD4
:107F0000A601A0E0B1E02C9130E011968C91119780
:107F100090E0982F8827822B932B1296FA010C0160
:107F200087BEE89511244E5F5F4FF1E0A038BF0790
:107F300051F7F601A7BEE89507B600FCFDCF97BE46
:107F4000E89526C08437B1F42ED02DD0F82E2BD052
:107F50003CD0F601EF2C8F010F5F1F4F84911BD097
:107F6000EA94F801C1F70894C11CD11CFA94CF0C13
:107F7000D11C0EC0853739F428D08EE10CD085E9AC
:107F80000AD08FE07ACF813511F488E018D01DD067
:107F900080E101D065CF982F8091C00085FFFCCF94
:107FA0009093C60008958091C00087FFFCCF809118
:107FB000C00084FD01C0A8958091C6000895E0E648
:107FC000F0E098E1908380830895EDDF803219F02E
:107FD00088E0F5DFFFCF84E1DECF1F93182FE3DFCA
:107FE0001150E9F7F2DF1F91089580E0E8DFEE27F6
:047FF000FF270994CA
:027FFE00040479
:00000001FF
