:100000000C9463000C948B000C948B000C947E0574
:100010000C947E050C947E050C948B000C948B0044
:100020000C948B000C948B000C948B000C948B0024
:100030000C948B000C948B000C948B000C948B0014
:100040000C9434050C948B000C9402050C94DC0485
:100050000C948B000C948B000C948B000C948B00F4
:100060000C948B000C948B000000000024002700EF
:100070002A0000000008000201000003040700003D
:1000800000000000000000000000230026002900FE
:1000900000000000250028002B00040404040404D0
:1000A0000404020202020202030303030303010227
:1000B00004081020408001020408102001020408F6
:1000C0001020F605E20A11241FBECFEFD8E0DEBFF4
:1000D000CDBF23E0ACECB2E001C01D92A53FB2075A
:1000E000E1F712E0A0E0B1E0E4E6F0E202C0059042
:1000F0000D92AC3CB107D9F710E0C2E6D0E004C0E5
:100100002197FE010E94690BC136D107C9F70E94F1
:10011000B2060C9425100C9400000895AF92BF9283
:10012000CF92DF92EF92FF920F931F93CF93DF93C3
:100130006C017B018B01040F151FEB015E01AE18F2
:10014000BF08C017D10759F06991D601ED91FC9114
:100150000190F081E02DC6010995892B79F7C50141
:10016000DF91CF911F910F91FF90EF90DF90CF9093
:10017000BF90AF900895FC01538D448D252F30E042
:10018000842F90E0821B930B541710F0CF960895A4
:1001900001970895FC01918D828D981761F0A28DD1
:1001A000AE0FBF2FB11D5D968C91928D9F5F9F7397
:1001B000928F90E008958FEF9FEF0895FC01918D4D
:1001C000828D981731F0828DE80FF11D858D90E0BA
:1001D00008958FEF9FEF0895FC01918D228D892F57
:1001E00090E0805C9F4F821B91098F73992708953F
:1001F00083E293E00E94EC0021E0892B09F420E0E7
:10020000822F089580E090E0892B29F00E94F80069
:1002100081110C9400000895FC01A48DA80FB92F42
:10022000B11DA35ABF4F2C91848D90E001968F731E
:100230009927848FA689B7892C93A089B1898C913D
:10024000837080648C93938D848D981306C002888C
:10025000F389E02D80818F7D80830895EF92FF9256
:100260000F931F93CF93DF93EC0181E0888F9B8DD9
:100270008C8D98131AC0E889F989808185FF15C093
:100280009FB7F894EE89FF896083E889F9898081B6
:100290008370806480839FBF81E090E0DF91CF9185
:1002A0001F910F91FF90EF900895F62E0B8D10E0A7
:1002B0000F5F1F4F0F731127E02E8C8D8E110CC016
:1002C0000FB607FCFACFE889F989808185FFF5CF61
:1002D000CE010E940C01F1CFEB8DEC0FFD2FF11D33
:1002E000E35AFF4FF0829FB7F8940B8FEA89FB899E
:1002F00080818062CFCF682F83E293E00C942E013F
:10030000CF93DF93EC01888D8823B9F0AA89BB894C
:10031000E889F9898C9185FD03C0808186FD0DC037
:100320000FB607FCF7CF8C9185FFF2CF808185FF58
:10033000EDCFCE010E940C01E9CFDF91CF9108955E
:10034000833081F028F4813099F08230A9F008954B
:100350008730A9F08830C9F08430B1F480918000F2
:100360008F7D03C0809180008F77809380000895F7
:1003700084B58F7784BD089584B58F7DFBCF809140
:10038000B0008F778093B00008958091B0008F7D8A
:10039000F9CF1F93CF93DF93282F30E0F901EE5868
:1003A000FF4F8491F901E255FF4FD491F901E656D0
:1003B000FF4FC491CC23A9F0162F81110E94A001F8
:1003C000EC2FF0E0EE0FFF1FE057FF4FA591B49127
:1003D0008FB7F894EC91111108C0D095DE23DC930F
:1003E0008FBFDF91CF911F910895DE2BF8CFCF9370
:1003F000DF9390E0FC01E255FF4F249186569F4F1A
:10040000FC0184918823D1F090E0880F991FFC01B2
:10041000E859FF4FA591B491FC01E057FF4FC591FA
:10042000D49161110EC09FB7F8948C91E22FE095A2
:100430008E238C932881E223E8839FBFDF91CF91A5
:1004400008958FB7F894EC91E22BEC938FBFF6CF21
:100450003FB7F8948091110390911203A091130378
:10046000B091140326B5A89B05C02F3F19F0019643
:10047000A11DB11D3FBFBA2FA92F982F8827BC01FE
:10048000CD01620F711D811D911D42E0660F771F26
:10049000881F991F4A95D1F708958F929F92AF9226
:1004A000BF92CF92DF92EF92FF924B015C010E94CC
:1004B00028026B017C010E9428026C197D098E09BB
:1004C0009F09683E734081059105A8F321E0821AD7
:1004D0009108A108B10888EEC80E83E0D81EE11C7F
:1004E000F11C81149104A104B10429F7FF90EF904D
:1004F000DF90CF90BF90AF909F908F9008952FB7CF
:10050000F89460910D0370910E0380910F03909108
:1005100010032FBF08952091170330911803281757
:10052000390771F49091150380911603981741F0E3
:10053000E0911503F0E0E453FD4F808190E00895D1
:100540008FEF9FEF0895EF92FF920F931F93CF933A
:10055000DF93DC015C96ED90FC905D97E114F10473
:1005600079F481E090E013969C938E93129790E03B
:1005700080E0DF91CF911F910F91FF90EF90089550
:100580005196ED91FC91529750968C915097982FDF
:1005900090950FB75E962C915E97122F127021FDE9
:1005A0006095F8942081112319F1282B2083E7010D
:1005B0002197F1F728E0462F50E0308160FF1AC004
:1005C000382B3083E7012197F1F7BA0175956795CC
:1005D000215089F7112381F08081892380830FBF07
:1005E0005C968D919C910197F1F781E090E0C1CFED
:1005F0002923DCCF3923E5CF9081892BEFCF2091C0
:100600001703309118032817390771F480911603E6
:100610002091150390E0805C9F4F821B910960E45C
:1006200070E00E94410B089590E080E008952091D1
:1006300017033091180328173907B9F4909115035F
:1006400080911603981789F0E0911503F0E0E453C8
:10065000FD4F80812091150330E02F5F3F4F2F73B6
:1006600033272093150390E008958FEF9FEF0895AF
:100670000F931F930E947F026093DA037093DB0352
:100680008093DC039093DD0382ED93E00E941703D7
:1006900097FF1DC00E947F020091DA031091DB03D7
:1006A0002091DC033091DD03601B710B820B930BF7
:1006B0000091D6031091D7032091D8033091D9032C
:1006C0006017710782079307F8F28FEF9FEF1F9172
:1006D0000F91089590E080E00895FB0101900020C3
:1006E000E9F73197AF01461B570BDC01ED91FC9107
:1006F0000280F381E02D09940F931F93CF93DF9332
:100700008C01D0E0C0E06115710519F00E946D0305
:10071000EC0166E371E0C8010E946D038C0F9D1F20
:10072000DF91CF911F910F9108950F931F93CF9356
:10073000DF93EC01FB014481558160817181E88187
:10074000F9810280F381E02D09958C0166E371E067
:10075000CE010E946D03800F911FDF91CF911F91F9
:100760000F9108954F925F926F927F928F929F9216
:10077000AF92BF92CF92DF92FF920F931F93CF93CE
:10078000DF93CDB7DEB7C456D1090FB6F894DEBFFC
:100790000FBECDBF6C012B018E010F5F1F4F84E692
:1007A000F80111928A95E9F764E670E080E090E044
:1007B0000E944D0282ED93E00E94FF021816190676
:1007C0002CF482ED93E00E941703F4CFB60182ED82
:1007D00093E00E9495030E947F024B015C01D12CA3
:1007E000C12C712C612C82ED93E00E94FF02892BB9
:1007F00091F082ED93E00E941703F801EC0DFD1DCE
:10080000808369E371E0C8010E946A0D892B69F554
:10081000FFEFCF1ADF0A0E947F02681979098A095F
:100820009B096415750586059705E8F2F12CB8015A
:1008300083E293E00E947C038F2D90E0CC59DF4F40
:100840000FB6F894DEBF0FBECDBFDF91CF911F91E1
:100850000F91FF90DF90CF90BF90AF909F908F90BF
:100860007F906F905F904F900895FF24F394DFCFB7
:100870006115710511F00C946D0390E080E008950E
:10088000FC0180819181009711F00C940B0C08956C
:100890000F931F93CF93DF93EC0188819981009789
:1008A00059F02A813B812617370730F081E0DF912C
:1008B000CF911F910F9108958B016F5F7F4F0E9421
:1008C000940C009759F0998388831B830A832C81A9
:1008D0003D81232B59F7FC011082E8CF80E0E7CF60
:1008E000EF92FF920F931F93CF93DF9300D0CDB77A
:1008F000DEB78C0169831A82FC01E480F580FFEF8A
:10090000EF1AFF0AB7010E944804882381F0F8011A
:100910002081318184819581BE016F5F7F4F820F7D
:10092000931F0E94630DF801F582E48281E00F902D
:100930000F90DF91CF911F910F91FF90EF9008954D
:10094000EF92FF920F931F93CF93DF93EC017B0104
:10095000198218821B821A821D821C82FB0101905F
:100960000020E9F731978F01061B170BB8010E9491
:10097000480428813981811113C02115310519F0EE
:10098000C9010E940B0C198218821D821C821B82D5
:100990001A82DF91CF911F910F91FF90EF900895F0
:1009A0001D830C83B701C901DF91CF911F910F9176
:1009B000FF90EF900C94630D1F920F920FB60F9261
:1009C00011242F933F934F935F936F937F938F9354
:1009D0009F93AF93BF93EF93FF9383E293E00E94C3
:1009E0000C01FF91EF91BF91AF919F918F917F91FA
:1009F0006F915F914F913F912F910F900FBE0F908C
:100A00001F9018951F920F920FB60F9211242F93DB
:100A10008F939F93EF93FF93E0913303F09134030F
:100A20008081E0913903F0913A0382FD1BC09081EF
:100A300080913C038F5F8F7320913D03821741F0BB
:100A4000E0913C03F0E0ED5DFC4F958F80933C031B
:100A5000FF91EF919F918F912F910F900FBE0F906B
:100A60001F9018958081F4CF1F920F920FB60F92AE
:100A700011242F933F938F939F93AF93BF938091B4
:100A80000D0390910E03A0910F03B09110033091CC
:100A90000C0323E0230F2D3758F50196A11DB11D3E
:100AA00020930C0380930D0390930E03A0930F03E8
:100AB000B09310038091110390911203A09113033E
:100AC000B09114030196A11DB11D80931103909361
:100AD0001203A0931303B0931403BF91AF919F919E
:100AE0008F913F912F910F900FBE0F901F901895EF
:100AF00026E8230F0296A11DB11DD2CF1F920F929F
:100B00000FB60F9211242F933F934F935F936F93E0
:100B10007F938F939F93AF93BF93EF93FF93E09156
:100B20001703F0911803309749F0A685B78585859E
:100B3000968D91FF14C09C918923A1F4FF91EF91B0
:100B4000BF91AF919F918F917F916F915F914F91E5
:100B50003F912F910F900FBE0F901F9018959C9171
:100B6000892361F7A389B4899C918589809589231C
:100B70008C93868997890197F1F7608D718DA68591
:100B8000B785558538E020E0CB010197F1F7822F3A
:100B900090E095958795282F4C91452309F0206882
:100BA000315091F7868D81FD20958091160390E05C
:100BB00001968F73992730911503381799F0A091FA
:100BC0001603B0E0A453BD4F2C9380931603828D7F
:100BD000938D0197F1F7A389B4898C919589892B1D
:100BE0008C93ACCF868D8160868FF1CF10922603D7
:100BF0001092250388EE93E0A0E0B0E080932703F5
:100C000090932803A0932903B0932A0326E131E0AF
:100C1000309324032093230325EC30E030933003FA
:100C200020932F0324EC30E03093320320933103E0
:100C300020EC30E0309334032093330321EC30E098
:100C4000309336032093350322EC30E030933803A1
:100C50002093370326EC30E030933A032093390396
:100C600010923C0310923D0310923E0310923F03FA
:100C70001092D5031092D4038093D6039093D70398
:100C8000A093D803B093D90388E291E09093D30363
:100C90008093D2031092E9031092E8031092EB03C1
:100CA0001092EA031092ED031092EC031092EF03FE
:100CB0001092EE036091F0036E7F6D7F6093F003FE
:100CC0006695617081E0682783E00E94C90161E058
:100CD00083E00E94F701E1EBF0E0E491E093E203AE
:100CE000EDE9F0E0E491F0E0EE0FFF1FE057FF4F79
:100CF000859194919093E4038093E30360E084E012
:100D00000E94F7018091F00381FD04C061E084E05E
:100D10000E94C90184E08093DE03E2EBF0E0E491FD
:100D2000E093DF03EEE9F0E0E491F0E0EE0FFF1F67
:100D3000EA57FF4F859194919093E1038093E003EC
:100D40006CE371E086EC93E00E94A0046CE371E038
:100D50008CEC93E00E94A00468E371E080EC93E0E7
:100D60000C94A004CF93DF93CDB7DEB7C656D1095C
:100D70000FB6F894DEBF0FBECDBF789484B5826005
:100D800084BD84B5816084BD85B5826085BD85B52F
:100D9000816085BD80916E00816080936E001092AD
:100DA0008100809181008260809381008091810028
:100DB00081608093810080918000816080938000B9
:100DC0008091B10084608093B1008091B000816017
:100DD0008093B00080917A00846080937A00809143
:100DE0007A00826080937A0080917A00816080939B
:100DF0007A0080917A00806880937A001092C10016
:100E0000E0913303F091340382E08083E091330377
:100E1000F09134031082E0912F03F091300310829F
:100E2000E0913103F091320380E1808310923B0323
:100E3000E0913703F091380386E08083E091350339
:100E4000F0913603808180618083E0913503F091D9
:100E50003603808188608083E0913503F09136030A
:100E6000808180688083E0913503F0913603808132
:100E70008F7D80831092ED031092EC031092EB03B0
:100E80001092EA031092E9031092E80382E490E0E2
:100E90009093EF038093EE039091DE03963108F078
:100EA00047C02FE030E03093E9032093E80320E4CB
:100EB00030E03093EB032093EA0327E230E03093F5
:100EC000ED032093EC032091680084E0983048F013
:100ED00031E09E3008F430E081E001C0880F3A959F
:100EE000EAF7822B809368002DE630E0983050F0CE
:100EF0002BE630E09E3030F02CE630E0963110F0FA
:100F000030E020E03093E6032093E503292F30E022
:100F1000983008F042C181E001C0880F9A95EAF745
:100F20008093E7038091EE039091EF030197F1F72F
:100F30008091EC039091ED03892B49F1E091170327
:100F4000F091180323E0E23DF20709F1309739F000
:100F5000A389B4899C918589809589238C938091FC
:100F6000F0038E7F8093F003109216031092150306
:100F700082ED93E09093180380931703E091E503CB
:100F8000F091E60380819091E703892B808367E4E9
:100F900071E082ED93E00E947C036AE471E082EDEF
:100FA00093E00E947C036FE471E082ED93E00E9485
:100FB0007C0361E086E00E94F70161E089E00E9425
:100FC000F70161E08AE00E94F70161E08BE00E9496
:100FD000F70160ED77E080E090E00E944D0267E469
:100FE00071E08E010F5F1F4FC8010E94A00464E6EC
:100FF00070E0C8010E94B203C8010E94400467E487
:1010000071E0C8010E94A00464E670E0C8010E947B
:10101000B203C8010E9440046EE571E0C8010E945D
:10102000A00464E670E0C8010E94B203C8010E94F7
:10103000400464E671E0C8010E94A00464E670E028
:10104000C8010E94B203C8010E94400462E771E037
:10105000C8010E94A00464E670E0C8010E94B203C7
:10106000C8010E9440046DE771E0C8010E94A0041D
:1010700068EC70E0C8010E94B203C8010E944004FD
:1010800068E871E0C8010E94A00468EC70E0C80143
:101090000E94B203C8010E94400482ED93E00E94C6
:1010A000FF02892B09F42AC182ED93E00E94170305
:1010B000F82E082E000C990B0E947B016F2D80ECFE
:1010C00093E00E9470046BE971E0C8010E94A004E3
:1010D0008091C4039091C503892B71F0C090C00327
:1010E000D090C10369817A81C6010E946A0D7C019A
:1010F000EC18FD08892B19F4EE24EA94FE2CC801A3
:101100000E9440041E141F0444F680912103909114
:101110002203892B11F670E060E080EC93E00E94DE
:1011200048042091C0033091C103811143C02115AF
:10113000310519F0C9010E940B0C1092C1031092E5
:10114000C0031092C5031092C4031092C3031092FF
:10115000C2033AE0E32EF12C82ED93E00E941703E4
:10116000D82E082E000C990B0E947B016D2D80EC6F
:1011700093E00E94700431E0E31AF10869F768E334
:1011800071E0C8010E94A0040E94380397FD1CC0B2
:10119000682FC8010E947004F7CF9E3040F4285099
:1011A000310981E001C0880F2A95EAF7B9CE2E50A7
:1011B0003109F7CF1092C5031092C40368E371E0C0
:1011C000C9010E94630DC5CFC8010E94400464EAB2
:1011D00071E083E293E00E94380460EC73E083E204
:1011E00093E00E94950326ECA22E23E0B22ED12C90
:1011F000C12CF501248135818091C4039091C503F0
:101200002817390709F068C0808191816091C00377
:101210007091C103009709F494C06115710539F408
:10122000232B09F49CC0FC01808190E095C00E94B2
:101230005A0D92C08091190390911A03A0911B033B
:10124000B0911C03A2019101281B390B4A0B5B0BC7
:10125000DA01C901883E9340A105B10538F1ECE7F8
:10126000F0E08491E8EBF0E0E490E4EAF0E0F49060
:10127000FF2079F081110E94A001EF2DF0E0EE0F28
:10128000FF1FEA57FF4FA591B4918C91E82261E0CE
:1012900009F460E060958AE00E94C9012092190378
:1012A00030921A0340921B0350921C0382ED93E08C
:1012B0000E94FF02892B09F443C182ED93E00E9452
:1012C00017030E947B01F2CFA7962EAD3FADA797E3
:1012D0002A50314009F089C056E0A50EB11C82E0C9
:1012E000C80ED11C94E0C916D10409F082CF81E068
:1012F00090E09093220380932103CFCE83E293E08A
:101300000E94EC00892B81F083E293E00E94CA00E6
:10131000F82E682F82ED93E00E94A3026F2D80ECDF
:1013200093E00E947004EACF80E090E0892B09F4FA
:10133000B4CE0E94F800882309F4AFCE0E940000CA
:10134000ACCE6115710559F0232B49F0FB0180816A
:1013500090E0919581959109892B09F0BDCF65EBBE
:1013600071E083E293E00E943804F601E25FFE4FF1
:1013700090808180692D782D83E293E00E9438046B
:101380006AEC71E083E293E00E943804F601E65FC4
:10139000FE4F70806180672D762D83E293E00E947E
:1013A0007C0367ED71E083E293E00E947C0360EED2
:1013B00071E082ED93E00E947C0365EE71E083E2D0
:1013C00093E00E947C0366EF71E082ED93E00E945F
:1013D000380468EC70E080E090E00E944D0226E066
:1013E00031E0A7963FAF2EAFA797A796EEADFFAD22
:1013F000A797E190F190A796FFAFEEAFA797F8E31C
:10140000EF16F1E0FF0609F45FCF94E6592EF801DC
:10141000252D11922A95E9F763E072E083E293E0CB
:101420000E943804B70183E293E00E947C03FF929C
:10143000EF9240E152E05F934F931F930F930E940E
:10144000840DB80182ED93E00E94380468EC70E0EE
:1014500080E090E00E944D02F801252D11922A951E
:10146000E9F78F929F9241E252E05F934F931F936F
:101470000F930E94840DB80182ED93E00E947C03DB
:10148000F80111925A94E9F76F927F922FE432E0BB
:101490003F932F931F930F930E94840DB80182ED09
:1014A00093E00E947C0368EC70E080E090E00E9492
:1014B0004D026AE182ED93E00E94A30266E371E0CF
:1014C00082ED93E00E946D0368EC70E080E090E0B4
:1014D0000E944D0266E371E082ED93E00E946D038D
:1014E00068E873E180E090E00E944D026CE572E0F4
:1014F00083E293E00E947C0368E672E083E293E07B
:101500000E943804B70183E293E00E947C03FF92BB
:10151000EF9285E792E09F938F931F930F930E9422
:10152000840DB80183E293E00E947C03B80182ED50
:1015300093E00E9438040FB6F894DEBF0FBECDBF13
:101540000E947F021B012C0180911D0390911E03BC
:10155000A0911F03B0912003A2019101281B390B18
:101560004A0B5B0BDA01C90180349C49A105B10526
:1015700008F460CE20921D0330921E0340921F0398
:101580005092200367ED71E083E293E00E947C03B8
:1015900060EE71E082ED93E00E947C0364EF71E005
:1015A00080E090E00E944D0282ED93E00E94FF02F5
:1015B000892B09F489CE82ED93E00E9417030E94E3
:1015C0007B01F2CF80EC93E00E9440048CEC93E02E
:1015D0000E94400486EC93E00E94400488E291E07F
:1015E0009093D3038093D2038091170390911803B3
:1015F000825D934071F4E091E503F091E603908100
:101600008091E703809589238083109218031092BC
:10161000170308952F923F924F925F926F927F929D
:101620008F929F92AF92BF92CF92DF92EF92FF92F2
:101630000F931F93CF93DF93CDB7DEB7CA1BDB0B9E
:101640000FB6F894DEBF0FBECDBF09942A88398843
:1016500048885F846E847D848C849B84AA84B9844A
:10166000C884DF80EE80FD800C811B81AA81B98156
:10167000CE0FD11D0FB6F894DEBF0FBECDBFED016A
:10168000089597FB072E16F4009407D077FD09D034
:101690000E94550B07FC05D03EF4909581959F4F15
:1016A0000895709561957F4F0895AA1BBB1B51E16A
:1016B00007C0AA1FBB1FA617B70710F0A61BB70BC2
:1016C000881F991F5A95A9F780959095BC01CD0167
:1016D0000895EE0FFF1F0590F491E02D09940F93EC
:1016E0001F93CF93DF938230910510F482E090E056
:1016F000E091F303F091F40330E020E0B0E0A0E0EB
:10170000309799F42115310509F44AC0281B390B8B
:1017100024303105D8F58A819B816115710589F1E5
:10172000FB0193838283FE0111C0408151810281BC
:10173000138148175907E0F04817590799F4109793
:1017400061F012960C93129713961C933296CF0168
:10175000DF91CF911F910F9108950093F3031093A0
:10176000F403F4CF2115310551F04217530738F037
:10177000A901DB019A01BD01DF01F801C1CFEF0131
:10178000F9CF9093F4038093F303CDCFFE01E20FE2
:10179000F31F819391932250310939832883D7CF46
:1017A0002091F1033091F203232B41F420910201A7
:1017B000309103013093F2032093F1032091000153
:1017C000309101012115310541F42DB73EB740910B
:1017D000040150910501241B350BE091F103F091B8
:1017E000F203E217F307A0F42E1B3F0B281739076B
:1017F00078F0AC014E5F5F4F2417350748F04E0F6D
:101800005F1F5093F2034093F103819391939FCF15
:10181000F0E0E0E09CCFCF93DF930097E9F0FC018C
:10182000329713821282A091F303B091F403ED0179
:1018300030E020E01097A1F420813181820F931FC6
:101840002091F1033091F2032817390709F061C0A4
:10185000F093F203E093F103DF91CF910895EA0151
:10186000CE17DF07E8F54A815B819E0141155105DE
:10187000B1F7E901FB83EA8349915991C40FD51F60
:10188000EC17FD0761F4808191810296840F951F0A
:10189000E90199838883828193819B838A83F0E025
:1018A000E0E012968D919C9113970097B9F52D91D8
:1018B0003C911197CD010296820F931F2091F10365
:1018C0003091F2032817390739F6309751F5109205
:1018D000F4031092F303B093F203A093F103BCCF8F
:1018E000D383C28340815181840F951FC817D907C4
:1018F00061F44E5F5F4F88819981480F591F518372
:1019000040838A819B81938382832115310509F06D
:10191000B0CFF093F403E093F3039ECFFD01DC011D
:10192000C0CF13821282D7CFB0E0A0E0EAE9FCE09A
:101930000C940C0B8C01009751F4CB010E946F0B9F
:101940008C01C801CDB7DEB7E0E10C94280BFC0197
:10195000E60FF71F9C0122503109E217F30708F444
:101960009DC0D901CD91DC911197C617D70798F08A
:10197000C530D10530F3CE0104978617970708F3D9
:10198000C61BD70B2297C193D1936D937C93CF0144
:101990000E940B0CD6CF5B01AC1ABD0A4C018C0E19
:1019A0009D1EA091F303B091F403512C412CF12C16
:1019B000E12C109731F58091F1039091F203881595
:1019C000990509F05CC04616570608F058C080918A
:1019D000000190910101009741F48DB79EB74091AD
:1019E000040150910501841B950BE817F90708F0D5
:1019F00055C0F093F203E093F103F9017183608322
:101A0000A0CF8D919C91119712966C90129713967E
:101A10007C901397A815B90559F56C0142E0C40EE6
:101A2000D11CCA14DB0420F1AC014A195B09DA01AC
:101A30001296159780F06282738251834083D90198
:101A40006D937C93E114F10471F0D7011396FC932C
:101A5000EE93129776CF22968C0F9D1FF9019183FA
:101A60008083F301EFCFF093F403E093F30369CFA6
:101A70004816590608F42C017D01D3019ACFCB01F9
:101A80000E946F0B7C01009749F0AE01B8010E94E3
:101A9000510DC8010E940B0C870153CF10E000E0EC
:101AA00050CFFB01DC0102C001900D92415050402B
:101AB000D8F70895FB01DC018D9101908019011088
:101AC000D9F3990B0895FB01DC0101900D920020E0
:101AD000E1F70895FB0151915523A9F0BF01DC0105
:101AE0004D9145174111E1F759F4CD0101900020C6
:101AF00049F04D9140154111C9F3FB014111EFCF60
:101B000081E090E001970895AEE0B0E0EAE8FDE002
:101B10000C94180B0D891E8986E08C831A83098327
:101B20008FEF9FE79E838D83AE01475E5F4F6F8986
:101B3000788DCE0101960E94A70D2F813885020F66
:101B4000131FF80110822E96E4E00C94340BABE0E6
:101B5000B0E0EDEAFDE00C940A0B7C013B018A0148
:101B6000FC0117821682838181FFC8C1CE010196D4
:101B70005C01F7019381F30193FD859193FF8191BE
:101B80003F01882309F453C1853239F493FD8591CF
:101B900093FF81913F01853229F4B70190E00E94C3
:101BA000970FE7CF912C212C312CFFE1F31538F062
:101BB0008B3211F190F4803209F1833229F137FC34
:101BC0003CC020ED280F2A3050F536FE20C08AE0B8
:101BD000989E200D1124922E06C08D3291F08033F4
:101BE00071F7689430F8F30193FD859193FF81912B
:101BF0003F018111DACF21C0689431F8689432F83E
:101C0000F2CF689433F8EFCF689434F8ECCFEAE081
:101C10002E9E200D1124222E689435F8E4CF8E32AA
:101C200029F436FC04C1689436F8DDCF8C3619F4FB
:101C3000689437F8D8CF8836B1F2982F9F7D9554A5
:101C40009330E0F08336A1F18337C1F1833509F099
:101C500063C02801F2E04F0E511CF801C080D18012
:101C6000692D70E036FC02C06FEF7FEFC6010E9465
:101C7000810F4C01689437F882010AC00C5F1F4F36
:101C8000FFE3F98388248394912C6501E89437F865
:101C900033FE2DC0522C8114910471F5552009F4A6
:101CA00068CFB70180E290E00E94970F5A94F6CF78
:101CB000F801808189830E5F1F4FE4CF2801F2E095
:101CC0004F0E511CF801C080D180692D70E036FCA8
:101CD00002C06FEF7FEFC6010E948C0F4C018201A2
:101CE000D5CFB70180E290E00E94970F2A94281484
:101CF000190409F0B0F7CECFF60137FC859137FE15
:101D000081916F01B70190E00E94970F51105A9492
:101D1000F1E08F1A9108BFCF843619F0893609F0A7
:101D200077C0F80137FE6BC0608171818281938139
:101D30000C5F1F4FF32DFF763F2E97FF09C0909544
:101D40008095709561957F4F8F4F9F4F689437F8BE
:101D50002AE030E0A5010E94C70FC82ECA188C2CBB
:101D6000432C36FE0CC0E89440F8C91440F434FE0D
:101D700005C032FC03C0F32DFE7E4F2E892C44FE9D
:101D800095C0FE01EC0DF11D8081803309F087C004
:101D9000242D297E422E842D8870582E43FC95C018
:101DA00040FE8FC09C2C821418F42C0C922C981896
:101DB00044FE91C0B70180E390E00E94970F42FE7D
:101DC00009C088E790E041FE02C088E590E0B701D5
:101DD0000E94970FC91408F48AC0CA94D12C9FEFAF
:101DE000C91AD90ACA0CDB1CF60182916F01B7012E
:101DF00090E00E94970FAC14BD04B1F74FCF608103
:101E00007181072E000C880B990B0E5F1F4F92CF2C
:101E1000D32CE894D4F82AE030E0853739F1232D2B
:101E2000297FD22E8F3601F148F48835A9F0F701C9
:101E3000868197812B96E2E10C94260B803749F03E
:101E40008837A9F7D4FE02C06894D2F820E130E0C8
:101E50000DC06894D4F8F6CF34FE03C0822F86609C
:101E6000D82E20E132E002C028E030E0F801D7FEB1
:101E70000FC060817181828193810C5F1F4FA5012A
:101E80000E94C70FC82ECA183D2CE89437F867CFB8
:101E90006081718190E080E00E5F1F4FF0CF42FCC7
:101EA00002C0839478CF8394839475CF842D8678F1
:101EB00009F471CFF6CFB70180E290E00E94970F4E
:101EC00083948214C0F3512C73CF522C581882146F
:101ED00008F46ECFF8CF842D867809F47BCF8BE29F
:101EE00041FE80E247FC8DE2B70190E071CFB7017F
:101EF00080E390E00E94970F9A946CCF8FEF9FEF52
:101F000099CFFC010590615070400110D8F7809581
:101F100090958E0F9F1F0895FC01615070400190B5
:101F20000110D8F7809590958E0F9F1F08950F93FD
:101F30001F93CF93DF93182F092FEB018B8181FD26
:101F400009C01FEF0FEF812F902FDF91CF911F91CD
:101F50000F91089582FF14C02E813F818C819D8155
:101F6000281739073CF4E881F981CF01019699835C
:101F7000888310838E819F8101969F838E83E3CF18
:101F8000E885F985812F0995892BA1F3DACFFA012C
:101F9000AA27283051F1203181F1E8946F936E7FA8
:101FA0006E5F7F4F8F4F9F4FAF4FB1E03ED0B4E099
:101FB0003CD0670F781F891F9A1FA11D680F791FDA
:101FC0008A1F911DA11D6A0F711D811D911DA11DEB
:101FD00020D009F468943F912AE0269F11243019FB
:101FE000305D3193DEF6CF010895462F4770405D96
:101FF0004193B3E00FD0C9F7F6CF462F4F70405D45
:102000004A3318F0495D31FD4052419302D0A9F79F
:10201000EACFB4E0A6959795879577956795BA9599
:10202000C9F700976105710508959B01AC010A2E5F
:1020300006945795479537952795BA95C9F7620F36
:10204000731F841F951FA01D089510E0C2E6D0E005
:1020500004C0FE010E94690B2196C336D107C9F75F
:04206000F894FFCF22
:102064000000F50380003C013C017D029702B302AD
:10207400BF02000000002E018E00BB008001EC00B6
:10208400CA00DE0000000000A3028E006A038D0077
:10209400FF0217038B020D0A004F4B00333231331A
:1020A4003131343532300041540041542646004128
:1020B400542B495052203D2035373630300041549E
:1020C40026460D0041542B4950523D3537363030A9
:1020D4000D0041542B434C49503D310D0041542BCC
:1020E400434D47463D310D0041542B434E4D493D30
:1020F400322C322C302C302C300D002B434C4950D8
:102104003A2022000A204C4C414D414E2044455374
:1021140044453A20004573746120526567697374BD
:102124007261646F2065733A2000204469726563AC
:1021340063696F6E3A2000436F6C67616E646F0071
:102144004154480D00456E7669616E646F204D659B
:102154006E73616A650041542B434D4746203D2010
:10216400310D004D656E73616A6520616C3A200023
:1021740041542B434D47533D222B35372573220AB7
:1021840000536520657374612070726573656E74A5
:10219400616E646F20756E20726F626F20656E20B1
:1021A400656C206C6F63616C20646520257300444A
:1021B4006972656363696F6E20257300534D532004
:1021C400656E766961646F004C6C616D616E646FFD
:1021D40020616C3A0041544425733B0D002D2D447D
:1021E4006972656363696F6E20416C657820436131
:1021F40063686F6E2D2D00202D2D44697265636315
:10220400696F6E20416C657820436163686F6E323C
:102214002D2D00416C657820436163686F6E004129
:0C2224006C657820436163686F6E3200C7
:00000001FF
